:1013E500446179733A00543A0020526554494D4599
:1013F50000202000200020463154494D450020465C
:101405003254494D4500204C4F54494D4500204C20
:101415004354494D450020202D20202D202000201B
:08142500203A20203A202000AB
:1016480003150D000A03180E000A031F0700000304
:041658001C1300005F
:10109D00121131E532FB3395E0FA752D027D017F9A
:1010AD00011216ACE533FB3395E0FA752D027D0484
:1010BD007F011216ACE534FB3395E0FA752D027DF8
:1010CD00077F011216ACE535FB3395E0FA752D025D
:1010DD007D017F021216ACE536FB3395E0FA752DD6
:1010ED00027D047F021216ACE537FB3395E0FA75ED
:1010FD002D027D077F021216ACE538FB3395E0FA21
:10110D00752D017D107F011216AC7BFF7A1379E5E9
:10111D007D0B7F0112166B7BFF7A1379EB7D0A7FB6
:04112D000202166B39
:10000E00E522B4020B0512E51275F0118485F0128B
:10001E00E522B4030A1512E512B4FF03751210E5BA
:10002E0022640460030201F1E512C3940740030247
:10003E00011374322512F806D3E532648094E3403E
:10004E0003E4F532D3E5336480948C4003753301B9
:10005E00E53364016023E5336403601DE533640515
:10006E006017E53364076011E5336408600BE53310
:10007E00640A6005E533B40C0BD3E5346480949FB9
:10008E00404D8048E53364046011E5336406600B2F
:10009E00E53364096005E533B40B0BD3E5346480B6
:1000AE00949E402B8026E533B40224E53275F0048D
:1000BE00120B5BAFF0EF700BD3E5346480949D4070
:1000CE000E8009D3E5346480949C4003753401D3CB
:1000DE00E535648094974003E4F535D3E5366480C6
:1000EE0094BB4003E4F536D3E537648094BB4003FC
:1000FE00E4F537D3E5386480948750030201F1E4C8
:10010E00F5380201F1E512D39406403AE512940A4D
:10011E005034E51224F9F50F2415F806D3E51564CD
:10012E008094974003E4F515D3E516648094BB40A4
:10013E0003E4F516D3E517648094BB50030201F176
:10014E00E4F5170201F1E512D394094036E5129455
:10015E000D5030E51224F6F5102418F806D3E518E4
:10016E00648094974003E4F518D3E519648094BB3A
:10017E004003E4F519D3E51A648094BB4065E4F5B9
:10018E001A8060E512D3940C402AE512940F502485
:10019E00E51224F3F51B241FF806D3E51F648094A3
:1001AE00974003E4F51FD3E520648094BB4034E40C
:1001BE00F520802FE512D3940E4028E512941150AD
:1001CE0022E51224F1F511241CF806D3E51C6480F7
:1001DE0094974003E4F51CD3E51D648094BB400363
:1001EE00E4F51DE522640560030203E6E512C394FF
:1001FE0007400302030874322512F816C3E5326471
:10020E008094805003753263C3E5336480948150CB
:10021E000375330CE53364016023E5336403601D1D
:10022E00E53364056017E53364076011E533640850
:10023E00600BE533640A6005E533B40C17C3E5348F
:10024E0064809481500375341FD3E5346480949F89
:10025E004072806DE53364046011E5336406600B13
:10026E00E53364096005E533B40B17C3E5346480E8
:10027E009481500375341ED3E5346480949E4044BB
:10028E00803FE5336402703CE53275F004120B5B7F
:10029E00AFF0EF7017C3E53464809481500375346A
:1002AE001DD3E5346480949D401A8015C3E53464F3
:1002BE00809481500375341CD3E5346480949C4043
:1002CE0003753401C3E5356480948050037535178A
:1002DE00C3E53664809480500375363BC3E53764BE
:1002EE00809480500375373BC3E53864809480401A
:1002FE00030203E67538070203E6E512D3940640BF
:10030E003AE512940A5034E51224F9F50F2415F843
:10031E0016C3E515648094805003751517C3E51652
:10032E0064809480500375163BC3E51764809480F7
:10033E0040030203E675173B0203E6E512D3940968
:10034E004036E512940D5030E51224F6F5102418BF
:10035E00F816C3E518648094805003751817C3E52A
:10036E001964809480500375193BC3E51A64809418
:10037E00805065751A3B8060E512D3940C402AE5D7
:10038E0012940F5024E51224F3F51B241FF816C304
:10039E00E51F648094805003751F17C3E5206480A9
:1003AE009480503475203B802FE512D3940E402854
:1003BE00E51294115022E51224F1F511241CF816C1
:1003CE00C3E51C648094805003751C17C3E51D643F
:1003DE008094805003751D3BE512C39407400302C1
:1003EE00052F7BFF7A1379EE7D0A7F0212166BE5DD
:1003FE00127014E514B4010F7BFF7A1379F67D01A8
:10040E007F0112166B8011E532FB3395E0FA752DE4
:10041E00027D017F011216ACE512B40114E514B48D
:10042E00010F7BFF7A1379F67D047F0112166B8024
:10043E0011E533FB3395E0FA752D027D047F011231
:10044E0016ACE512B40214E514B4010F7BFF7A1357
:10045E0079F67D077F0112166B8011E534FB33951B
:10046E00E0FA752D027D077F011216ACE512B4037A
:10047E0014E514B4010F7BFF7A1379F67D017F0228
:10048E0012166B8011E535FB3395E0FA752D027D62
:10049E00017F021216ACE512B40414E514B4010F78
:1004AE007BFF7A1379F67D047F0212166B8011E5BD
:1004BE0036FB3395E0FA752D027D047F021216ACE1
:1004CE00E51264057022E514B4011D7BFF7A1379E1
:1004DE00F67D077F0212166BE538FB3395E0FA7551
:1004EE002D017D107F01800EE537FB3395E0FA7507
:1004FE002D027D077F021216ACE512B40612E5142A
:10050E00B4010D7BFF7A1379F97D107F010206622B
:10051E00E538FB3395E0FA752D017D107F0102075A
:10052E0070E512D3940650030205DAE512940A40E0
:10053E00030205DA7BFF7A1379FB7D0A7F0212161E
:10054E006BE51264077022E514B4011D7BFF7A136C
:10055E0079F67D017F0212166BE538FB3395E0FAD2
:10056E00752D017D107F01800EE515FB3395E0FAA8
:10057E00752D027D017F021216ACE512B40814E54A
:10058E0014B4010F7BFF7A1379F67D047F021216E5
:10059E006B8011E516FB3395E0FA752D027D047F15
:1005AE00021216ACE512B40912E514B4010D7BFF6C
:1005BE007A1379F67D077F02020662E517FB339503
:1005CE00E0FA752D027D077F02020770E512D394C3
:1005DE00095003020676E512940D40030206767B5F
:1005EE00FF7A1479037D0A7F0212166BE512B40AA4
:1005FE0014E514B4010F7BFF7A1379F67D017F02A7
:10060E0012166B8011E518FB3395E0FA752D027DFD
:10061E00017F021216ACE512B40B14E514B4010FEF
:10062E007BFF7A1379F67D047F0212166B8011E53B
:10063E0019FB3395E0FA752D027D047F021216AC7C
:10064E00E512B40C12E514B4010D7BFF7A1379F6A2
:10065E007D077F0202166BE51AFB3395E0FA752DC6
:10066E00027D077F02020770E512D3940C4077E5F6
:10067E0012940F50717BFF7A14790B7D0A7F021250
:10068E00166BE512B40D14E514B4010F7BFF7A134B
:10069E0079F67D017F0212166B8011E51FFB3395F3
:1006AE00E0FA752D027D017F021216ACE512B40E32
:1006BE0014E514B4010F7BFF7A1379F67D047F02E3
:1006CE0012166B8011E520FB3395E0FA752D027D35
:1006DE00047F021216ACE521FB3395E0FA752D026C
:1006EE007D077F02807CE512D3940E4078E512944C
:1006FE001150727BFF7A1479137D0A7F0212166BEA
:10070E00E512B40F14E514B4010F7BFF7A1379F6DA
:10071E007D017F0212166B8011E51CFB3395E0FA0A
:10072E00752D027D017F021216ACE512B41014E590
:10073E0014B4010F7BFF7A1379F67D047F02121633
:10074E006B8011E51DFB3395E0FA752D027D047F5C
:10075E00021216ACE51EFB3395E0FA752D027D07ED
:06076E007F021216AC220E
:1015C200121472E539B51511E53AB5160CE53BB5BD
:1015D2001707C2A2C293752301E539B51811E53A7E
:1015E200B5190CE53BB51A07C2A2C29375230122B5
:100FFB00121472AF39EF3395E0FE7C007D3C120B7F
:10100B00AAAD3AED3395E0FCEF2DFFEE3CFE3395A8
:10101B00E08F288E27F526F525AF1FEF3395E0FEE1
:10102B007C007D3C120BAAAD20ED3395E0FCEF2D3F
:10103B00FFEE3CFE3395E08F2C8E2BF52AF529AF76
:10104B001CEF3395E0FE7C007D3C120BAAAD1DED31
:10105B003395E0FCEF2DFFEE3CFE3395E08F308EA9
:10106B002FF52EF52DAF2CAE2BAD2AAC29AB28AA24
:10107B0027A926A825D3120CED4013AF30AE2FAD08
:10108B002EAC2DA825120CED500475240122E4F58D
:01109B002430
:01109C002231
:1012CE007590FF1217C312178E120E8B1217F01293
:1012DE00174C7BFF7A14791B7D017F0112166B7BF5
:1012EE00FF7A1479247D017F0212166B120D1112F2
:1012FE0015C2120FFB12124A1200038F22E522B4FE
:10130E000116E5137007751301F512800BE513B482
:10131E000106E4F513120D11E51314600B0470CFE2
:0D132E0012109D120E8B80C712000E80C29F
:03000B00020F4F92
:100F4F00C0E0C0F0C083C082C0D075D000C000C068
:0D0F5F0001C002C003C004C005C006C007E9
:100F6C00758A18758CFC0509E50970020508C3948F
:100F7C00F4E50894014012750800750900E5147039
:100F8C00047F0180027F008F14050BE50B700205B6
:100F9C000AC39414E50A94004009750A00750B0005
:100FAC0012142DE523B4011E050DE50D7002050C80
:100FBC00C394D0E50C9407400D750C00750D0075AD
:100FCC002300D2A2D293309609E524B40104C2A125
:040FDC008002D2A11C
:100FE000D007D006D005D004D003D002D001D00065
:0B0FF000D0D0D082D083D0F0D0E0320F
:0617B400C2A68F80D2A541
:0817BA007F027EEFDEFEDFFC82
:0117C2002204
:0A17DC00C2A71217B4C2A50217BA83
:10168E00CFCDCFCECCCE120BBC7C007D0A120BBCC4
:04169E00ED2430FF08
:0A16A200D2A71217B4C2A50217BAAE
:10176300AE07BE0104ED148006BE0209ED243F441A
:0617730080FF1217DC22CA
:10178E007F381217DC7F0C1217DC7F061217DC7FF6
:04179E00010217DC51
:0A17E600AC03121763AF040216A251
:06166B008B258A26892769
:10167100121763E4FDAB25AA26A9278D8275830085
:0C168100120B7DFF60061216A20D80E91E
:01168D00223A
:0C158F007F0AEA24FFFDE434FFFC7E002C
:08159B008E2E8F2F8C308D3154
:1015A3007F017E00E4FBEBC39531E5306480F87482
:0E15B3008098500AAC2EAD2F120BAA0B80E8C8
:0115C1002207
:0416AC008A2B8B2CCE
:1016B000121763AA2DEAD39400400D12158FAC2B9C
:0816C000AD2C12168E1A80ED0C
:0116C80022FF
:1014AF00121763C3EA64809480400B7F2B1216A23D
:1014BF008A418B42800E7F2D1216A2C3E49BF54208
:1014CF00E49AF541AA40EAD39400400D12158FAC6F
:0914DF0041AD4212168E1A80ED97
:0114E80022E1
:0414E9008A458B465F
:1014ED00121763AA47EAD3940040297F1012159171
:1014FD00AC45AD46CFCDCFCECCCE120BBCEF540FFD
:10150D00FEC3940AEE5004243080022437FF1216D5
:04151D00A21A80D1BD
:0115210022A7
:041522008A4A8B4B1B
:10152600121763AA4CEAD394004028EA24FFFDE48C
:1015360034FFFC7F027E0012159BAC4AAD4BCFCD2B
:10154600CFCECCCE120BBCEF54012430FF1216A224
:031556001A80D226
:01155900226F
:0E165C0007321702170C3B3B04033900000055
:0517F000C2B7C2B522E2
:05133B002DFDEE3CFC5D
:061340008C258D26AB0791
:10134600D2B7E4FD74017E00A805088005C333CE3C
:1013560033CED8F9FFEBF582EF558224FF92B6D251
:10136600B5C2B50DBD08DDE4FD74017E00A8050813
:101376008005C333CE33CED8F9FFE5255EFEE526DC
:101386005F4E24FF92B6D2B5C2B50DBD08DBC2B71B
:011396002234
:02139700AD07A0
:10139900E4F9430501D2B7FB74017E00A803088074
:1013A90005C333CE33CED8F9FFEDF582EF5582244C
:1013B900FF92B6C2B5D2B50BBB08DDE4FBD2B5C20C
:1013C900B530B60D7401A803088002C333D8FC42B6
:0B13D900010BBB08E8C2B7C2B6AF01B1
:0113E40022E6
:100D1100E4FDFC7F8E121340E53275F00A120B5B85
:100D2100FF3395E0FEEFC4F8540FC868FFEEC454DA
:100D3100F048FEE53275F00A120B5BADF0ED33952C
:100D4100E0FCEF7F8C12133BE53375F00A120B5B6D
:100D5100FF3395E0FEEFC4F8540FC868FFEEC454AA
:100D6100F048FEE53375F00A120B5BADF0ED3395FB
:100D7100E0FCEF7F8812133BE53475F00A120B5B40
:100D8100FF3395E0FEEFC4F8540FC868FFEEC4547A
:100D9100F048FEE53475F00A120B5BADF0ED3395CA
:100DA100E0FCEF2DFDEE3CFC7F86121340E535752E
:100DB100F00A120B5BFF3395E0FEEFC4F8540FC845
:100DC10068FFEEC454F048FEE53575F00A120B5B7E
:100DD100ADF0ED3395E0FCEF2DFDEE3CFC7F841290
:100DE1001340E53675F00A120B5BFF3395E0FEEF19
:100DF100C4F8540FC868FFEEC454F048FEE53675D8
:100E0100F00A120B5BADF0ED3395E0FCEF2DFDEE3A
:100E11003CFC7F82121340E53775F00A120B5BFF31
:100E21003395E0FEEFC4F8540FC868FFEEC454F0E8
:100E310048FEE53775F00A120B5BADF0ED3395E036
:100E4100FCEF2DFDEE3CFC7F80121340E53875F080
:100E51000A120B5BFF3395E0FEEFC4F8540FC8682C
:100E6100FFEEC454F048FEE53875F00A120B5BAD95
:100E7100F0ED3395E0FCEF2DFDEE3CFC7F8A121383
:0A0E8100407D807C007F8E0213404C
:101131007F8C121397EFC4540F75F00AA4FEEF547D
:101141000F2EF5327F88121397EFC4540F75F00AF2
:10115100A4FEEF540F2EF5337F86121397EFC4547C
:101161000F75F00AA4FEEF540F2EF5347F8412138D
:1011710097EFC4540F75F00AA4FEEF540F2EF53506
:101181007F82121397EFC4540F75F00AA4FEEF5437
:101191000F2EF5367F80121397EFC4540F75F00AA6
:1011A100A4FEEF540F2EF5377F8A121397EFC45424
:0C11B1000F75F00AA4FEEF540F2EF53865
:0111BD00220F
:101472007F84121397EFC4540F75F00AA4FEEF5441
:101482000F2EF5397F82121397EFC4540F75F00AAD
:10149200A4FEEF540F2EF53A7F80121397EFC45437
:0C14A2000F75F00AA4FEEF540F2EF53B6E
:0114AE00221B
:05000300E4AF57F557C2
:0100080022D5
:1016E600E4FF20B1010F20B0027F0220B2027F0387
:0A16F60020B3027F0420B4027F0538
:0117000022C6
:10142D008555561216E68F55E556B40107E55570EC
:10143D0003755701E556B40207E55570037557025C
:10144D00E556B40307E5557003755703E556B40427
:10145D0007E5557003755704E556B40507E5557056
:04146D0003755705A7
:011471002258
:10174C005389F0438901758A18758CFCC28DD28C33
:07175C00D2A9D2AFC2B922ED
:10155A00C2927F007E007D007C002091FDE4FBD2D8
:10156A00927801120CFEC29230910DEF2401FFE431
:10157A003EFEE43DFDE43CFC0BBB18E3D292ED6475
:04158A0080FDC2928C
:01158E00223A
:0F161E0012155AE4120A9C8F508E4F8D4E8C4D30
:10162D00AF50AE4FAD4EAC4DE4FBFA799678431208
:0B163D0009758F508E4F8D4E8C4D2292
:10124A0012161E7F007E187D127C47AB50AA4FA94A
:10125A004EA84D120A125007C2A4D2A3D2A0227FCE
:10126A00007E187D127C47AB50AA4FA94EA84D129A
:10127A000A12401C7F007E387D157C47AB50AA4F6E
:10128A00A94EA84D120A125007C2A3D2A4D2A02274
:10129A007F007E387D157C47AB50AA4FA94EA84DDA
:1012AA00120A12401E12161E7F007E387D157C47D8
:1012BA00AB50AA4FA94EA84D120A124006C2A0D29C
:0412CA00A3D2A422E5
:10177900EF1FAC0670011E4C600A7D027CEFDCFE97
:04178900DDFC80EC17
:01178D002239
:0D17C3001217017FCC12171B7F4402171B69
:1015F2001217017FCC12171B7FBE12171B1216C9BE
:101602008F291216C9EFFEE529FFFDAC06EC120A7E
:0B161200A1E4FBFA7980784112097511
:01161D0022AA
:100E8B001217C31215F28F288E278D268C2512155B
:100E9B00F2A804A905AA06AB07AF28AE27AD26AC6E
:100EAB0025120777120ADA1217D0C3EF9402EE64F9
:100EBB00809480500C852854852753852652852590
:100ECB0051E4FFFEFDFCAB54AA53A952A851120AE0
:100EDB0012501E7B2D7D0C7F021217E6AF54AE53C2
:100EEB00AD52AC51120A8B8F548E538D528C518054
:100EFB00097B2B7D0C7F021217E6AF54AE53AD521C
:100F0B00AC51120ADAAB07AA06752D027D0D7F02D2
:100F1B001216AC7B2E7D0F7F021217E6E4FFFE7DCF
:100F2B00207C41AB54AA53A952A85112086C120A47
:100F3B00DAE47B0AFAF9F8120C4D752D017D107F5E
:040F4B00020216ACDC
:10170100D290C2907FF7DFFED2907F20DFFEA290C1
:09171100E433FE7FF7DFFEAF06B2
:01171A0022AC
:1017A200C2907E04DEFEEF24FF92907E18DEFED20F
:0117B20090A6
:0117B3002213
:10173400C2907F02DFFED2907F02DFFEA290E433EC
:07174400FE7F18DFFEAF0677
:01174B00227B
:02171B00AD0718
:10171D00E4FC7401A804088002C333D8FC5DFF12F9
:06172D0017A20CBC08EC41
:011733002293
:1016C900E4FDFC121734EF600D7401A804088002D0
:0C16D900C333D8FC42050CBC08E9AF0587
:0116E50022E2
:10077400020B46E86480F8E933E83360110460F062
:10078400ED33EC337009E8FCE9FDEAFEEBFF2204EB
:1007940060DED3EB9FEA9EE99DE8C2E78CF0C2F7E6
:1007A40095F0400CE8CCF8E9CDF9EACEFAEBCFFBB2
:1007B400120B1185D0F05804700320D5B3E80470EF
:1007C400075002B2D5020B5092D5EC0460F7E4CC8A
:1007D400C0E0C398F8603B94186008400DD0E0FB7B
:1007E400020B28E4FBFAC9FC8028E830E406E4C9DB
:1007F400FBE4CAFCE830E305E4C9CACBFCE85407CF
:100804006010F8C3E913F9EA13FAEB13FBEC13FCD9
:10081400D8F130F52FC3E49CFCEF9BFFEE9AFEED7C
:1008240099FDD0E0FBEF4E4D4C701222DB03020B1E
:100834004DEC2CFCEF33FFEE33FEED33FDED30E7F2
:10084400EB020B28EF2BFFEE3AFEED39FDD0E0FB77
:1008540050130BBB0003020B50ED13FDEE13FEEF20
:0808640013FFEC13FC020B284A
:10086C00EC4D6011E8497017ED33EC3304600DE486
:10087C00FCFFFEFD22E933E8330470F8020B46124C
:10088C000B1158046009E4CC24815006285009024D
:10089C000B50284003020B4DC0E0EB4A7044B9806A
:1008AC0006D0E0FB020B3CEF4E701CBD8008EBFF4A
:1008BC00EAFEE9FD80EBE98DF0A4FEE5F0020955B6
:1008CC00E9CDF9EAFEEBFFEF89F0A4FCE5F0CE8967
:1008DC00F0A42EFFE435F0CD89F0A42DFEE435F024
:1008EC008067EF4E7005BD80D780C3EF8BF0A4AC52
:1008FC00F0EE8BF0A42CFCE435F0F8EF8AF0A42C8D
:10090C00E5F038FCE433CB8DF0A42CFCE5F03BF89F
:10091C00EE8AF0A42CFCE5F038F8E433CF89F0A48F
:10092C002CFCE5F038CF3400CE89F0A42FFFE5F095
:10093C003EFEE433C98DF0A42EFEE5F039CD8AF0ED
:10094C00A42FFFE5F03EFEE43DFD33D0E0FB500765
:10095C000BBB000F020B50EC2CFCEF33FFEE33FE05
:06096C00ED33FD020B2833
:10097200020B50EC5D046005E859047003020B465B
:10098200120B11580460F6EC4860F2EC7004FDFEA4
:10099200FF22C860DB2481C85009C3986002500658
:1009A200020B4D9850CAF582E9294B4A7005AB8279
:1009B200020B3C75F0007C1A7880C3EF9BEE9AED37
:1009C20099400DC3EF9BFFEE9AFEED99FDE842F0D0
:1009D200DC23ACF0D0E0FFD0E0FED0E0FDAB822023
:1009E200E7101BEB60BAEC2CFCEF33FFEE33FEEDAD
:1009F20033FD020B28E803F830E705C0F075F0007C
:100A0200EF2FFFEE33FEED33FD40B830E7C280AA90
:100A120074F8CC6480CCC86480C8F58204604FC38B
:100A2200EB9FF5F0EA9E42F0E99D42F0E89C45F02A
:100A3200603C501DE5825FFFE582D313CB5BCBF4B4
:100A42002B5582FB50280ABA002409B900200880DD
:100A52001DE5825BFBE582D313CF5FCFF4C3132F77
:100A62005582FF50090EBE00050DBD00010CC3EBFF
:100A72009FF5F0EA9E42F0E99D42F0E89C45F06065
:090A820007CC4820E701B3EC2287
:100A8B00ED33EC33600A047003BD8004ECB2E7FC79
:010A9B002238
:100A9C0075F020800E75F010800575F0087D007ED5
:100AAC00007F003392D530D503120CDFEC334010AD
:100ABC00EF33FFEE33FEED33FDEC33FCD5F0ED22DE
:0E0ACC00E5F0247EA2D513CC92E7CDCEFF221A
:100ADA00EDD2E7CD33EC3392D524814006E4FFFE14
:100AEA00FDFC22FCE4CFCECDCC24E0501174FF8073
:100AFA00EDC3CC13CCCD13CDCE13CECF13CF047010
:070B0A00F030D5DE020CDF24
:100B1100E9D2E7C933E833F892D5EDD2E7CD33EC2A
:070B210033FC5002B2D522A3
:100B2800EC30E7100FBF000C0EBE00080DBD00042E
:100B38000BEB6014A2D5EB13FCED92E7FD2274FFDA
:100B4800FCFDFEFF22E480F8A2D574FF13FC7D8033
:030B5800E480EF47
:030000000211BE2C
:0C11BE00787FE4F6D8FD75815702120519
:100B5B00C2D530F707B2D563F0FF05F030E70CB222
:100B6B00D5F4048463F0FF05F080018430D502F4E2
:020B7B00042252
:100B7D00BB010CE58229F582E5833AF583E022502D
:100B8D0006E92582F8E622BBFE06E92582F8E22277
:0D0B9D00E58229F582E5833AF583E4932291
:100BAA00EF8DF0A4A8F0CF8CF0A428CE8DF0A42E5F
:020BBA00FE2219
:100BBC00BC000BBE0029EF8DF084FFADF022E4CC1D
:100BCC00F875F008EF2FFFEE33FEEC33FCEE9DECE6
:100BDC00984005FCEE9DFE0FD5F0E9E4CEFD22ED2C
:100BEC00F8F5F0EE8420D21CFEADF075F008EF2F76
:100BFC00FFED33FD4007985006D5F0F222C398FD67
:050C0C000FD5F0EA2203
:100C110075F008758200EF2FFFEE33FECD33CDCC9A
:100C210033CCC58233C5829BED9AEC99E58298401D
:100C31000CF582EE9BFEED9AFDEC99FC0FD5F0D6FA
:100C4100E4CEFBE4CDFAE4CCF9A88222B800C1B924
:100C51000059BA002DEC8BF084CFCECDFCE5F0CB62
:100C6100F97818EF2FFFEE33FEED33FDEC33FCEB9B
:100C710033FB10D703994004EB99FB0FD8E5E4F956
:100C8100FA227818EF2FFFEE33FEED33FDEC33FC43
:100C9100C933C910D7059BE99A4007EC9BFCE99A37
:100CA100F90FD8E0E4C9FAE4CCFB2275F010EF2F7C
:100CB100FFEE33FEED33FDCC33CCC833C810D7077C
:100CC1009BEC9AE899400AED9BFDEC9AFCE899F8B7
:0E0CD1000FD5F0DAE4CDFBE4CCFAE4C8F9224A
:0E0CDF00C3E49FFFE49EFEE49DFDE49CFC2226
:100CED00EB9FF5F0EA9E42F0E99D42F0E89C45F05D
:010CFD0022D4
:100CFE00E8600FEFC333FFEE33FEED33FDEC33FC54
:030D0E00D8F122F7
:0C17D000EE30E707C3E49FFFE49EFE221A
:1011CA000212CEE493A3F8E493A34003F68001F25B
:1011DA0008DFF48029E493A3F85407240CC8C33326
:1011EA00C4540F4420C8834004F456800146F6DFF5
:1011FA00E4800B0102040810204080901648E47E27
:10120A00019360BCA3FF543F30E509541FFEE493E9
:10121A00A360010ECF54C025E060A840B8E493A3B0
:10122A00FAE493A3F8E493A3C8C582C8CAC583CADB
:10123A00F0A3C8C582C8CAC583CADFE9DEE780BE93
:01166A00007F
:00000001FF
